:020000040000FA
:100000000C945D000C9496040C946F040C94850081
:100010000C9485000C9485000C9485000C9485004C
:100020000C9485000C9485000C9485000C9485003C
:100030000C9485000C9485000C9485000C9485002C
:100040000C9425040C9485000C94E3040C94BD04DA
:100050000C9485000C9485000C9485000C9485000C
:100060000C9415050C948500000000002400270066
:100070002A0000000000250028002B0004040404CE
:100080000404040402020202020203030303030342
:10009000010204081020408001020408102001021F
:1000A00004081020000000080002010000030407FB
:1000B0000000000000000000340611241FBECFEF36
:1000C000D8E0DEBFCDBF12E0A0E0B1E0E4E7F4E1AC
:1000D00002C005900D92AE3DB107D9F724E0AEED18
:1000E000B2E001C01D92A533B207E1F710E0CDE503
:1000F000D0E004C02197FE010E94230ACC35D1072D
:10010000C9F70E946D060C94380A0C94000090E028
:10011000FC01EC55FF4F2491FC01E057FF4F349157
:10012000FC01E458FF4FE491EE23C9F0222339F09B
:10013000233001F1A8F4213019F1223029F1F0E047
:10014000EE0FFF1FEE58FF4FA591B4918FB7F894B3
:10015000EC91611126C030953E233C938FBF0895EA
:100160002730A9F02830C9F0243049F78091800069
:100170008F7D03C0809180008F7780938000DFCFD8
:1001800084B58F7784BDDBCF84B58F7DFBCF809125
:10019000B0008F778093B000D2CF8091B0008F7D78
:1001A000F9CF3E2BDACF3FB7F89480918803909136
:1001B0008903A0918A03B0918B0326B5A89B05C043
:1001C0002F3F19F00196A11DB11D3FBFBA2FA92FD6
:1001D000982F8827BC01CD01620F711D811D911DD3
:1001E00042E0660F771F881F991F4A95D1F708953F
:1001F0008F929F92AF92BF92CF92DF92EF92FF9237
:100200006B017C010E94D3004B015C01C114D1043D
:10021000E104F104B9F00E94D300681979098A0950
:100220009B09683E73408105910580F321E0C21A65
:10023000D108E108F10888EE880E83E0981EA11C21
:10024000B11CE4CFFF90EF90DF90CF90BF90AF90C4
:100250009F908F90089508950895CF93DF93AC01F8
:10026000E0917803F09179033097F1F09091770362
:10027000809176039817C0F090E0292F30E0261780
:10028000370754F4D901A052BD4F240F351FE9019F
:1002900028812C939F5FF1CF1092770360937603B0
:1002A000CB01DF91CF910994DF91CF91089508950B
:1002B000AF92BF92CF92DF92EF92FF920F931F9374
:1002C000CF93DF936C017B018B01040F151FEB01B2
:1002D0005E01AE18BF08C017D10759F06991D60169
:1002E000ED91FC910190F081E02DC6010995892BDB
:1002F00079F7C501DF91CF911F910F91FF90EF909A
:10030000DF90CF90BF90AF900895FC01538D448D46
:10031000252F30E0842F90E0821B930B541710F0B0
:10032000CF96089501970895FC01918D828D9817BD
:1003300061F0A28DAE0FBF2FB11D5D968C91928D95
:100340009F5F9F73928F90E008958FEF9FEF0895C6
:10035000FC01918D828D981731F0828DE80FF11D8F
:10036000858D90E008958FEF9FEF0895FC01918DAA
:10037000228D892F90E0805C9F4F821B91098F73A3
:10038000992708958CE893E00E94B60121E0892B1B
:1003900009F420E0822F089580E090E0892B29F075
:1003A0000E94C20181110C9400000895FC01A48DEB
:1003B000A80FB92FB11DA35ABF4F2C91848D90E087
:1003C00001968F739927848FA689B7892C93A0896A
:1003D000B1898C91837080648C93938D848D9813F4
:1003E00006C00288F389E02D80818F7D8083089587
:1003F000EF92FF920F931F93CF93DF93EC0181E075
:10040000888F9B8D8C8D98131AC0E889F98980811B
:1004100085FF15C09FB7F894EE89FF896083E8894E
:10042000F98980818370806480839FBF81E090E040
:10043000DF91CF911F910F91FF90EF900895F62ECD
:100440000B8D10E00F5F1F4F0F731127E02E8C8D67
:100450008E110CC00FB607FCFACFE889F9898081AC
:1004600085FFF5CFCE010E94D601F1CFEB8DEC0FC9
:10047000FD2FF11DE35AFF4FF0829FB7F8940B8FC9
:10048000EA89FB8980818062CFCFCF93DF93EC0133
:10049000888D8823B9F0AA89BB89E889F9898C916C
:1004A00085FD03C0808186FD0DC00FB607FCF7CF28
:1004B0008C9185FFF2CF808185FFEDCFCE010E9428
:1004C000D601E9CFDF91CF91089520912603260F21
:1004D0003327331F21323105ECF420914A03FC010C
:1004E00090E080E0243069F082E00895A091260336
:1004F0002191AC014A5F5C4FA40FB52FB11D2C9325
:100500000196861798F380912603680F609326035F
:1005100080E0089581E0089510924A0381E080937D
:100520004C0310924B0361E082E10E94870061E07E
:1005300083E10E948700E9EBF0E080818E7F808379
:1005400080818D7F808388E48093B80085E48093E8
:10055000BC0008950895E091770380917603E81731
:1005600030F4F0E0E052FD4F808190E008958FEF8D
:100570009FEF089590917703809176032FEF3FEFDF
:10058000981748F4E92FF0E0E052FD4F208130E069
:100590009F5F90937703C9010895809176039091AE
:1005A0007703891B990B0895CF93DF93CB01EA0161
:1005B000642F0E946502CE01DF91CF910895CF9301
:1005C000DF931F92CDB7DEB7698361E0CE0101965C
:1005D0000E94650281E090E00F90DF91CF91089535
:1005E00090E080E00895FC0101900020E9F7319748
:1005F000AF01481B590BBC018CE893E00C945801E7
:100600008F929F92AF92BF920F931F93CF93DF93DE
:10061000CDB7DEB7A1970FB6F894DEBF0FBECDBF42
:1006200019A2423008F44AE08E010F5D1F4F842E5C
:10063000912CB12CA12CA50194010E940709E62F51
:10064000B901CA01EA30F4F4E05DD801EE938D01FE
:10065000232B242B252B79F790E080E0109719F0BD
:10066000CD010E94F302A1960FB6F894DEBF0FBE33
:10067000CDBFDF91CF911F910F91BF90AF909F9011
:100680008F900895E95CE1CFCF92DF92EF92FF92D5
:10069000CF93DF936B017C016DE28CE893E00E94C5
:1006A000F801EC0166277727CB016C197D098E09CB
:1006B0009F094AE00E9400038C0F9D1FDF91CF919C
:1006C000FF90EF90DF90CF900895CF93DF930E943B
:1006D000F302EC0180E391E00E94F3028C0F9D1F76
:1006E000DF91CF910895CF93DF93D1E0909176037E
:1006F00080917703981709F44EC08091DF02811131
:1007000019C089E294E00E94BA028093DE02D0937D
:10071000DF0283E391E00E9465036091DE0270E0F6
:1007200090E080E04AE00E94000380E391E00E94B4
:10073000F302DCCF1092DF0289E294E00E94BA0259
:10074000C82F85E491E00E9465036C2F70E090E073
:1007500080E04AE00E94000380E391E00E94F302FF
:100760008091DE02811111C0C09304011092050135
:1007700010920601109207011092080110920901CF
:1007800010920A0110920B01B1CF813009F0AECF67
:1007900080938203ABCFDF91CF910895CF93DF9306
:1007A00085ED8093BC008091020390910303A0919A
:1007B0000403B09105030796A11DB11D23E0B69572
:1007C000A795979587952A95D1F72091BC0024FD90
:1007D00003C010924A0336C04091020350910303B4
:1007E0006091040370910503452B462B472B69F359
:1007F0000097A105B10541F02AE22A95F1F700C062
:100800000197A109B109E1CF8091010391E0909393
:1008100000038823B9F0C091B800D091BA0080914C
:10082000BC008A7B8093BC0060E082E10E9487006C
:1008300060E083E10E9487000E948C02D093BA009E
:10084000C093B800DF91CF9108951F920F920FB619
:100850000F9211242F933F938F939F93AF93BF9346
:100860008091840390918503A0918603B0918703C2
:100870003091830323E0230F2D3758F50196A11DF6
:10088000B11D209383038093840390938503A093E9
:100890008603B09387038091880390918903A09188
:1008A0008A03B0918B030196A11DB11D809388032B
:1008B00090938903A0938A03B0938B03BF91AF9168
:1008C0009F918F913F912F910F900FBE0F901F908E
:1008D000189526E8230F0296A11DB11DD2CF1F92B5
:1008E0000F920FB60F9211242F933F934F935F9364
:1008F0006F937F938F939F93AF93BF93EF93FF93E8
:10090000E0910201F09103010995FF91EF91BF91F0
:10091000AF919F918F917F916F915F914F913F9197
:100920002F910F900FBE0F901F9018951F920F924E
:100930000FB60F9211242F933F934F935F936F93B2
:100940007F938F939F93AF93BF93EF93FF93E09128
:100950000001F09101010995FF91EF91BF91AF91D5
:100960009F918F917F916F915F914F913F912F91C7
:100970000F900FBE0F901F9018951F920F920FB6F9
:100980000F9211242F933F934F935F936F937F9315
:100990008F939F93AF93BF93EF93FF938CE893E074
:1009A0000E94D601FF91EF91BF91AF919F918F91DE
:1009B0007F916F915F914F913F912F910F900FBE5B
:1009C0000F901F9018951F920F920FB60F9211243F
:1009D0002F938F939F93EF93FF93E0919C03F0915C
:1009E0009D038081E091A203F091A30382FD1BC0CF
:1009F00090818091A5038F5F8F732091A60382174A
:100A000041F0E091A503F0E0E457FC4F958F80930F
:100A1000A503FF91EF919F918F912F910F900FBEA2
:100A20000F901F9018958081F4CF1F920F920FB6F0
:100A30000F9211242F933F934F935F936F937F9364
:100A40008F939F93AF93BF93EF93FF938091B900E0
:100A5000887F803609F44AC0F0F5883209F4A7C0CF
:100A600018F5803109F49BC0B8F4882309F4F9C063
:100A7000883009F494C0FF91EF91BF91AF919F919D
:100A80008F917F916F915F914F913F912F910F9037
:100A90000FBE0F901F901895883109F488C08032DE
:100AA00051F78093490314C0803409F49DC040F489
:100AB0008033B9F38833F9F68093490385ECB0C0ED
:100AC000803509F485C0883509F496C0883499F6D4
:100AD0000E94CE03D0CF883909F48CC038F588370E
:100AE00029F050F4883611F0803729F683E080939E
:100AF0004A031092480357C0883809F47BC08039F4
:100B000019F0803809F0B7CF80914803803208F09F
:100B100071C0E091480381E08E0F8093480380917B
:100B2000BB00F0E0E85DFC4F80833DC0803B39F0C6
:100B3000E0F4803A09F479C0883A09F09CCF84E067
:100B400080934A031092270310922603E0917203C8
:100B5000F091730309958091260381110FC081E004
:100B6000809326031092060309C0803C09F4A6CFA7
:100B7000883C09F4A3CF883B09F07DCFE09127039F
:100B800081E08E0F80932703F0E0EA5FFC4F8081C5
:100B90008093BB00909127038091260329C0809108
:100BA0006F038093BB0085EC8093BC0064CF909171
:100BB0006E0380916D03981758F5E0916E0381E004
:100BC0008E0F80936E03F0E0E35BFC4F8081E9CFF2
:100BD000E0916E0381E08E0F80936E038091BB00E5
:100BE000F0E0E35BFC4F808390916E0380916D0396
:100BF0009817C8F285E8D8CFE0916E0381E08E0F98
:100C000080936E038091BB00F0E0E35BFC4F808338
:100C100080914C0381115CCF81E080934B0384EA87
:100C20008093BC0010924A0326CF85EC8093BC00D1
:100C300010924A0380914803803230F4E0914803D7
:100C4000F0E0E85DFC4F10826091480370E0E091B5
:100C50007003F091710388E293E0099510924803C4
:100C60000ACF1092490334CFECE8F3E013821282EA
:100C700088EE93E0A0E0B0E084839583A683B783F9
:100C800020E131E03183208325EC30E03587248773
:100C900024EC30E03787268720EC30E0318B208B46
:100CA00021EC30E0338B228B22EC30E0358B248B2F
:100CB00026EC30E0378B268B118E128E138E148E1D
:100CC000E9E2F4E01382128284839583A683B783DA
:100CD00082E291E0918380830895789484B5826064
:100CE00084BD84B5816084BD85B5826085BD85B5D0
:100CF000816085BD80916E00816080936E0010924E
:100D000081008091810082608093810080918100C8
:100D10008160809381008091800081608093800059
:100D20008091B10084608093B1008091B0008160B7
:100D30008093B00080917A00846080937A008091E3
:100D40007A00826080937A0080917A00816080933B
:100D50007A0080917A00806880937A001092C100B6
:100D6000E8E9F0E02491E4E8F0E08491882399F048
:100D700090E0880F991FFC01E859FF4FA591B491AD
:100D8000FC01EE58FF4F859194918FB7F894EC9148
:100D9000E22BEC938FBF61E088E00E948700E2E9DC
:100DA000F0E02491EEE7F0E084918823C1F090E038
:100DB000880F991FFC01E859FF4FC591D491FC01A0
:100DC000EE58FF4FA591B4919FB7F8943881822FC8
:100DD000809583238883EC91E22BEC939FBF8BE279
:100DE00091E09093010180930001809169008C7FD4
:100DF000826080936900E89A1092770310927603DC
:100E000010927503109274030E948C028CE291E0A0
:100E100090937303809372038DE291E0909371033A
:100E20008093700380E48093BA0083E793E090930B
:100E3000790380937803E0919C03F0919D0382E015
:100E40008083E0919803F09199031082E0919A03D6
:100E5000F0919B038FEC80831092A403E091A00398
:100E6000F091A10386E08083E0919E03F0919F03BF
:100E7000808180618083E0919E03F0919F03808157
:100E800088608083E0919E03F0919F038081806859
:100E90008083E0919E03F0919F0380818F7D80830A
:100EA00088E591E00E94650390E0892E90E0992EFC
:100EB000CFEF809182038111C0C020917A033091DD
:100EC0007B0340917C0350917D0360917E03709180
:100ED0007F038091800390918103203B3440410542
:100EE0005105610571058105910509F00CF4A5C056
:100EF00088E991E00E94650360E088E00E94870035
:100F000060E27EE480E090E00E94F80061E088E02A
:100F10000E94870010927A0310927B0310927C0348
:100F200010927D0310927E0310927F031092800333
:100F30001092810310928203C0930401C0930501B3
:100F4000C0930601C0930701C0930801C093090133
:100F5000C0930A01C0930B0184EE91E00E946503E7
:100F600080918203813009F456C020917A03309138
:100F70007B0340917C0350917D0360917E037091CF
:100F80007F0385E0A82EB12CC12CD12CE12CF12CB3
:100F900000E010E080918003909181030E94340969
:100FA000A0E00E94170AA1F48EEC92E00E94F302E6
:100FB00060917A0370917B03072E000C880B990BCC
:100FC00097FF21C10E94440380E391E00E94F30255
:100FD00020917A0330917B0340917C0350917D03F3
:100FE00060917E0370917F038091800390918103D3
:100FF000A1E00E940B0A20937A0330937B03409375
:101000007C0350937D0360937E0370937F038093F2
:1010100080039093810368EC70E080E090E00E9490
:10102000F8008114910409F444CF0E94C20188237E
:1010300009F43FCF0E9400003CCF20910401309181
:1010400005014091060150910701609108017091DE
:10105000090180910A0190910B01A0E00E94170AFA
:1010600009F00CF47DCF80E292E00E94F302E0915F
:1010700004015091050130910601209107018091F2
:1010800008018091090180910A0180910B016E2F66
:10109000752F832F922F97FFB2C00E94440385E4DF
:1010A00092E00E9465038CE893E00E9445027091F3
:1010B0000401609105019091060180910701209142
:1010C00008012091090120910A0120910B01A8EE4D
:1010D000B3E0272F362F492F582F0E9429090E944D
:1010E000F800C0930401C0930501C0930601C093AA
:1010F0000701C0930801C0930901C0930A01C0937E
:101100000B0160E088E00E9487008FE492E00E947B
:1011100065038CE893E00E94450280917A008F7706
:1011200080937A0080916400816080936400809154
:101130006400846080936400809164008068809380
:1011400064008091640080628093640080916400F8
:101150008860809364008091640080648093640060
:1011600083B7817F846083BFF89483B7816083BF36
:101170007894889583B78E7F83BF809164008E7F3B
:1011800080936400809164008B7F809364008091E1
:1011900064008F7780936400809164008F7D8093DA
:1011A000640080916400877F809364008091640074
:1011B0008F7B8093640080917A00806880937A00AE
:1011C00084E892E00E9465038CE893E00E94450267
:1011D0001092820310927A0310927B0310927C0388
:1011E00010927D0310927E0310927F031092800371
:1011F0001092810361E088E00E948700B1CE4AE04E
:101200000E9400034CCF4AE00E940003DDCEA1E221
:101210001A2EAA1BBB1BFD010DC0AA1FBB1FEE1F70
:10122000FF1FA217B307E407F50720F0A21BB30BBB
:10123000E40BF50B661F771F881F991F1A9469F737
:1012400060957095809590959B01AC01BD01CF0193
:1012500008950E94290AA59F900DB49F900DA49F08
:10126000800D911D11240895689401C0E894F92F10
:10127000F12B12F00C946809A0E0B0E0E2E4F9E090
:101280000C94DA09092E059422F40E94C409112352
:1012900092F4F0E80F26FFEFE094F094009510959B
:1012A000B094C094D094A194BF0ACF0ADF0AEF0A89
:1012B000FF0A0F0B1F0B0E94730907FC0E94C40951
:1012C000CDB7DEB7ECE00C94F609689401C0E89461
:1012D0008F929F92CF93DF930E947309DF91CF91FA
:1012E0009F908F90089588249924F401E401B0E43C
:1012F0009F93AA279A158B049C04ED05FE05CF0544
:10130000D007A10798F4AD2FDC2FCF2FFE2FE92DAA
:10131000982C892E982F872F762F652F542F432FA7
:10132000322F2227B85031F7BF9127C01B2EBF9113
:10133000BB27220F331F441F551F661F771F881FAF
:10134000991F881C991CEE1FFF1FCC1FDD1FAA1FB1
:10135000BB1F8A149B04EC05FD05CE05DF05A00725
:10136000B10748F08A189B08EC09FD09CE09DF098E
:10137000A00BB10B21601A94E1F62EF49401AF0199
:10138000BE01CD01000C08956095709580959095F3
:1013900030954095509521953F4F4F4F5F4F6F4F80
:1013A0007F4F8F4F9F4F08952F923F924F925F92A2
:1013B0006F927F928F929F92AF92BF92CF92DF9265
:1013C000EF92FF920F931F93CF93DF93CDB7DEB7CA
:1013D000CA1BDB0B0FB6F894DEBF0FBECDBF09945E
:1013E0002A88398848885F846E847D848C849B84B5
:1013F000AA84B984C884DF80EE80FD800C811B81C3
:10140000AA81B981CE0FD11D0FB6F894DEBF0FBEF1
:10141000CDBFED0108950024A7FD00942A0F301DD3
:10142000401D501D601D701D801D901D08950024DD
:10143000A7FD00942A17300540055005600570058A
:10144000800590050895EE0FFF1F0590F491E02DA3
:101450000994A29FB001B39FC001A39F700D811D8D
:101460001124911DB29F700D811D1124911D0895AD
:10147000F894FFCF57015701FFFFFFFFFFFFFFFF6A
:1014800000000000F801580185014502B6019401F1
:10149000A80100000000DF02D402F002AA02CD027F
:1014A000BA02AB020D0A0052656365697665642075
:1014B00066697273742E2E2E0052656365697665B7
:1014C00064207365636F6E642E2E2E000A493243CA
:1014D0002052656365697665722052656164792E74
:1014E0002057616974696E6720666F72207369673F
:1014F0006E616C2066726F6D20506920746F20637E
:10150000757420706F7765722E2E2E004552524FE3
:10151000523A204E6F20636F6D6D756E6963617412
:10152000696F6E2066726F6D20504920736F207452
:101530007279696E6720746F207265737573636961
:10154000746174652077697468206120706F7765B5
:1015500072206379636C650046696E6973686564BF
:1015600020706F776572206379636C652C207761DA
:101570006974696E6720666F7220636F6D6D756E3A
:1015800069636174696F6E2066726F6D20504920C7
:101590002E2E2E0041544D4547412077696C6C201A
:1015A00063757420706F77657220746F207468653E
:1015B0002052506920696E2000207365636F6E644D
:1015C000732E0041544D45474120656E7465726924
:1015D0006E6720736C656570206D6F64652E2041A9
:1015E0006C61726D2077696C6C2077616B65206D22
:1015F000652075702E2E2E0041544D4547412077B1
:101600006F6B652075702E205475726E696E672041
:101610005049206F6E20616E642077616974696E35
:101620006720666F72207369676E616C20746F202B
:1016300073687574646F776E20616761696E2E2EB2
:101640002E004C6F6F70696E6720636F756E74202B
:02165000000098
:107E0000112484B714BE81FFF0D085E080938100F7
:107E100082E08093C00088E18093C10086E0809377
:107E2000C20080E18093C4008EE0C9D0259A86E02C
:107E300020E33CEF91E0309385002093840096BBD3
:107E4000B09BFECF1D9AA8958150A9F7CC24DD24C4
:107E500088248394B5E0AB2EA1E19A2EF3E0BF2EE7
:107E6000A2D0813461F49FD0082FAFD0023811F036
:107E7000013811F484E001C083E08DD089C08234E0
:107E800011F484E103C0853419F485E0A6D080C0E4
:107E9000853579F488D0E82EFF2485D0082F10E0AE
:107EA000102F00270E291F29000F111F8ED06801E7
:107EB0006FC0863521F484E090D080E0DECF843638
:107EC00009F040C070D06FD0082F6DD080E0C81688
:107ED00080E7D80618F4F601B7BEE895C0E0D1E017
:107EE00062D089930C17E1F7F0E0CF16F0E7DF06D8
:107EF00018F0F601B7BEE89568D007B600FCFDCFD4
:107F0000A601A0E0B1E02C9130E011968C91119780
:107F100090E0982F8827822B932B1296FA010C0160
:107F200087BEE89511244E5F5F4FF1E0A038BF0790
:107F300051F7F601A7BEE89507B600FCFDCF97BE46
:107F4000E89526C08437B1F42ED02DD0F82E2BD052
:107F50003CD0F601EF2C8F010F5F1F4F84911BD097
:107F6000EA94F801C1F70894C11CD11CFA94CF0C13
:107F7000D11C0EC0853739F428D08EE10CD085E9AC
:107F80000AD08FE07ACF813511F488E018D01DD067
:107F900080E101D065CF982F8091C00085FFFCCF94
:107FA0009093C60008958091C00087FFFCCF809118
:107FB000C00084FD01C0A8958091C6000895E0E648
:107FC000F0E098E1908380830895EDDF803219F02E
:107FD00088E0F5DFFFCF84E1DECF1F93182FE3DFCA
:107FE0001150E9F7F2DF1F91089580E0E8DFEE27F6
:047FF000FF270994CA
:027FFE00040479
:00000001FF
